:100000000C94C8010C94E5010C94E5010C94E501F5
:100010000C94E5010C94E5010C94E5010C94E501C8
:100020000C94E5010C94E5010C948E1E0C94621F57
:100030000C9472190C94E5010C94E5010C94E50103
:100040000C94E5010C94E5010C94E5010C94E50198
:100050000C94E5010C94F9190C94E5010C94E5015C
:100060000C94E5010C94E5010C94E5010C94E50178
:100070000C94E5010C94E5010C94E5010C94E50168
:100080000C94E5010C94E5010C94E5010C94E50158
:100090000C94E5010C94E5010C94E5010C94E50148
:1000A0000C94E5010C94E5010C94E50114001A0090
:1000B0000800150017001C0018000C0012001300A7
:1000C00004621600070009000A000B000D000E0074
:1000D0000F0029001D611B64064319442A422C416C
:1000E00005451174107128721E001F0020002100A8
:1000F0002200230024002500260027003A003B00B0
:100100003C003D003E003F004000410042004300F3
:1001100001000100010001004C000100010001008C
:10012000010001001E021F022002210222022302FE
:100130002402250226022702440045000100010096
:100140000100010001000100010035000100010073
:100150000100010001000100010001000100010097
:10016000010001000100010001002D002E002F0000
:10017000300031002B0001000100010001003600B9
:100180003700380033003400010001000100010095
:10019000010001005000510052004F000100010019
:1001A0000100010001002D022E022F023002310257
:1001B0002B00010001000100010036023702380265
:1001C00033023402010001000100010001000100BE
:1001D0004A004E004B004D00B200B500B100B30024
:1001E00001000100010001000100460001000100C2
:1001F000010001000100010001000100BE5CBF5CC4
:100200000100010001000100005C0100010001008B
:1002100001000100100347006800650072006B00D8
:1002200069006E0000002003340030002000500000
:1002300065007200630065006E00740020004300DA
:100240006C007500620000000403090409023B0011
:10025000020100A0FA0904000001030101000921C4
:100260001101000122400007058103080001090473
:100270000100010300000009211101000122B60064
:10028000070582032000011201000200000008257A
:1002900040606001000102000105010902A1018521
:1002A000020901A100050919012908150025019578
:1002B00008750181020501093009311581257F95F5
:1002C000027508810609381581257F950175088119
:1002D00006050C0A38021581257F950175088106EF
:1002E000C0C005010980A101850319012AB70015C5
:1002F0000126B700950175108100C0050C0901A108
:1003000001850419012AA002150126A00295017594
:10031000108100C005010906A1018506050719E045
:1003200029E71500250195087501810205071900C7
:1003300029EF1500250195F07501810205081901C5
:100340002905950575019102950175039101C00577
:10035000010906A101050719E029E7150025019506
:1003600008750181029501750881010507190029A9
:10037000FF150026FF009506750881000508190184
:100380002905950575019102950175039101C0003C
:1003900011241FBECFEFDAE0DEBFCDBF11E0A0E039
:1003A000B1E0E2E4F4E402C005900D92A438B10794
:1003B000D9F722E0A4E8B1E001C01D92AD38B20740
:1003C000E1F70E9473110C9409220C94000081E063
:1003D000089581E008950E94E901089508950E941A
:1003E000EE010895A5E0B0E0E8EFF1E00C94922171
:1003F00049835A833091870189819A81311119C0CB
:10040000662399F0222389F00E947908182F682F1B
:1004100089819A810E94550869817A81812F0E9481
:10042000F50E2596E3E00C94AE210E946708182F84
:10043000F3CF0E94790869817A81F1CFFC01262FE0
:10044000408151816281738184810E94F20108950B
:1004500081E00895CF93DF93EC0160E00E941E02DB
:10046000BE010E94EF01DF91CF9108950E943110EB
:1004700008950E943510089508950E94A4060E94D0
:100480003C022FEF84E39CE0215080409040E1F754
:1004900000C0000008950E943D020E941D1A0895A8
:1004A0000E943D020E942E1A08950F931F93CF932E
:1004B000DF938C0161E00E941E02EC01B8010E94F2
:1004C000EB01811106C080E0DF91CF911F910F9168
:1004D0000895B801CE010E94EC148823A1F3B8015D
:1004E000CE010E94A417882371F3B801CE010E94A7
:1004F000D915882341F3B801CE010E94161788232D
:1005000011F3F8018281882361F0CB35FDE5DF0727
:1005100001F158F4C115ECE5DE0791F0CF3DDC4563
:1005200091F0C8010E94E701CFCFCD358DE5D80706
:1005300069F090F0C83ADD45A1F70E945002C3CFA0
:100540000E944B02C0CF0E943F0DF7CF0E94790C52
:10055000E8CF0E94830CE5CF0E94870CE2CF0E9477
:100560004F1980E00E9421150E94D10208950E9437
:1005700018140E94D5020E945419089508950E94EB
:10058000BE02089581E008950E94C2020895089570
:10059000CF93C82F0E94BF028C2F0E94C402CF911C
:1005A000089580E00E94C80208950E9400180E94E9
:1005B000C80208950E94001890918601981721F0B2
:1005C000809386010E94C8020895ABE0B0E0EBEE94
:1005D000F2E00C9493214F83588769877A878B8741
:1005E00061110E94C40B1E821D8285E0FE013796B8
:1005F000DE01119601900D928A95E1F78C819D8123
:10060000892B61F449815A816B817C818D819E8126
:100610000E94ED0A2B96E2E00C94AF2189819A8129
:1006200089238F3F79F3CE0101960E942802811120
:10063000E9CFF0CFFC01808191810E94B308089539
:10064000CF93C82F8823C9F08238C9F40E940018BC
:1006500081FD13C089E30E947C0B0E94E50B2FEF04
:1006600081EE94E0215080409040E1F700C000000E
:1006700089E30E94840B0E94E50BCF910895833893
:10068000A1F40E94001880FDF8CF83E50E947C0B46
:100690000E94E50B2FEF81EE94E0215080409040C6
:1006A000E1F700C0000083E5E4CF8438A1F40E94A4
:1006B000001882FDE2CF87E40E947C0B0E94E50BCC
:1006C0002FEF81EE94E0215080409040E1F700C090
:1006D000000087E4CECF8CEF8C0F813A90F46C2F22
:1006E00080910001909101010E947518882329F0E2
:1006F0008C2F0E94840B0E94E50B8C2F0E947C0B98
:10070000BACF80E28C0F883048F4C77081E001C016
:10071000880FCA95EAF70E94A70BADCFEBE5EC0F67
:10072000E33040F4F0E0EB5BFE4F808190E00E940C
:100730003518A3CFE8E5EC0FE73150F4F0E0EE0F09
:10074000FF1FE95EFE4F808191810E944B1895CF7B
:10075000CD3E08F492CF8C2F0E94F7110E94CA124E
:100760008CCF882309F455C0823879F40E94001890
:1007700081FF4FC089E30E947C0B0E94E50B89E357
:100780000E94840B0E94E50B0895833859F40E945F
:10079000001880FF3EC083E50E947C0B0E94E50BA1
:1007A00083E5EECF843859F40E94001882FF31C0EF
:1007B00087E40E947C0B0E94E50B87E4E1CF9CEF6D
:1007C000980F913AE8F290E2980F983050F48770C1
:1007D00091E001C0990F8A95EAF7892F0E94AD0B2D
:1007E000D1CF9BE5980F933028F490E080E00E94F1
:1007F0003518089598E5980F973128F490E080E037
:100800000E944B1808958D3E20F00E9451120E94C4
:10081000CA1208951F93CF93DF93182FEB010E9404
:100820002003209739F4812F0E94B103DF91CF91EB
:100830001F9108958FE99FE00197F1F700C0000034
:100840002197EFCF70E060E0893311F460E570E04C
:100850000E940A040895882321F00E94A70B0E9499
:10086000E50B0895882321F00E94AD0B0E94E50B53
:100870000895B0E0A0E0EFE3F4E00C948C216C016B
:10088000D62FC72FFC011281F580F2949FE0F92248
:100890000E949D0BE82E8823B9F0E12E1123A1F0D0
:1008A0008C2F807F803421F080E28D0F8830D0F053
:1008B0008091700282FF16C082E00E94480C0E9464
:1008C0009D0B91E0E82EE926BC2EB2948FE0B82271
:1008D000FBE0FB1508F468C0EB2DF0E0E55FFD4D93
:1008E0000C946321E12CF0CF0C2F0F70C07F11F01E
:1008F0000295007F112399F0002359F080E28D0FBB
:10090000883010F0D11107C0802F0E94A70B0E94E1
:10091000E50B8D2F41C0802F0E94B70BF8CF8D2F94
:100920000E94B103002309F43FC080E28D0F88309C
:1009300010F0D11104C0802F0E94AD0B03C0802F96
:100940000E94BD0B0E94E50B2FC00C2F0F70C07FC3
:10095000C03211F00295007FDD2381F0D13009F41F
:1009600063C0112309F46DC0FF2009F463C0F601D0
:10097000858180FFCECF8F7085835CC080917002AF
:1009800082FD33C0112359F0002329F0802F0E94EB
:10099000A70B0E94E50B80E00E94200305C080E0C9
:1009A0000E94B1030111C7CFEB2DE850FF0B349724
:1009B00020F40E9400180E94C802EE2089F00E94D4
:1009C000990B80FD0DC0F60112820E94930B0E94CC
:1009D0005D07C6010E9464060E94930B0E947F0778
:1009E000CDB7DEB7E9E00C94A821112389F0F1100E
:1009F00006C00E94C70B802B0E942B04D5CF21E09C
:100A0000F212F7CF0E94C70B802B0E94CE0BCCCFE7
:100A1000F11006C00E94DB0B802F0E943204C4CF6D
:100A200031E0F31609F2F6CF112331F085E08F158E
:100A300008F4BACF802FE0CF94E09F1508F4B4CF2C
:100A4000EBCFFF2049F3D93349F4FFEF27EE33E032
:100A5000F15020403040E1F700C000008D2F0E948F
:100A6000B103A2CF8C2F86958695837069F0813073
:100A700009F09ACF8D2F9C2F9370111102C090E036
:100A800080E00E944B1890CF8D2F9C2F93701111F6
:100A900002C090E080E00E94351886CF8D2F112390
:100AA00029F00E94F7110E94CA127ECF0E945112B3
:100AB000FACF8C2F837009F041C0111175CF4D2FE3
:100AC000429546954770440F440F0D2F0F7010E06C
:100AD00030E020E0042E04C0000F111F221F331F3E
:100AE0000A94D2F760E070E0CB01D4FF0FC06FE052
:100AF00070E080E090E004C0660F771F881F991FA8
:100B00004A95D2F76095709580959095C695C69553
:100B1000C370602B712B822B932BC23049F058F499
:100B2000C13019F00E9408073FCF0E94F5063CCF64
:100B30000E941B0739CF0E94F20636CF86951123FB
:100B400011F08C2F8170882309F42ECF4D2F429500
:100B500046954770440F440F0D2F0F7010E030E0A2
:100B600020E0042E04C0000F111F221F331F0A941F
:100B7000D2F760E070E0CB01D4FF0FC06FE070E00F
:100B800080E090E004C0660F771F881F991F4A9588
:100B9000D2F76095709580959095C695C695C3706F
:100BA000602B712B822B932BC23049F058F4C1304B
:100BB00019F00E94D807F8CE0E94C507F5CE0E9412
:100BC000EB07F2CE0E943407EFCECF70112329F04D
:100BD0008C2F0E945D078D2F0FCF8D2F0E94320426
:100BE0008C2F0E947F07E0CED23F51F160F4D03FBE
:100BF000B9F0D13F81F0112309F449C0F11089CE39
:100C00008C2F8F7121C0D33F11F1D43FA1F7809178
:100C1000700282FD26C08C2F8F71112311F314C036
:100C2000112349F084E08F1508F4BECE8C2F8F710C
:100C30000E94A307B9CE95E09F1508F4B5CEF6CF74
:100C40008C2F8F711111CDCF0E945D07ADCE112376
:100C500029F08C2F8F710E944707A6CE0E94410772
:100C6000A3CE112349F0CF718C2F0E945D0763E062
:100C70008C2F0E942A0C98CE81E00E94480CE1E063
:100C8000EF1508F091CE82E00E94480C8DCEF11055
:100C9000DACE8C2F8F71A5CF0F931F93CF93DF9355
:100CA000EC01688179818A810E94BE088C010E94D2
:100CB000FE070E94F106B801CE010E943904DF91BF
:100CC000CF911F910F910895CF93DF93EC018B810A
:100CD0009C81892B29F08881998189238F3F51F448
:100CE000DF91CF910895CE010E944C06CE010E9463
:100CF0002A02F6CFCE010E9455028111F4CF0E9444
:100D00009D0B882369F38A81882351F380917002B7
:100D100082FFE6CF82E00E94480CE2CF90E080E0C4
:100D20000E94351890E080E00E944B180E94C40B8E
:100D30000E94E50B0E94E6120E94CA1208950E94CA
:100D40008C0B0E948E0608950E94B40B0E949F0691
:100D5000089592959F70963091F058F4925F9F702D
:100D6000923058F4803F19F030F4883E30F481E03E
:100D700008959A5FF4CF843FD1F380E00895883ED0
:100D8000B0F3813FD1F7F3CFFC01808191810E94C4
:100D9000B3080E94A9060895A5E0B0E0E2EDF6E0F0
:100DA0000C9493212596E2E00C94AF21A6E0B0E0EC
:100DB000ECEDF6E00C9493212696E2E00C94AF2142
:100DC00008950E94E00608950E94E1066093A00144
:100DD0007093A1018093A2019093A3010E948E06BB
:100DE000089508950E94E40608950F931F930091BB
:100DF000A0011091A1012091A2013091A301602BCB
:100E0000712B822B932B0E94E4061F910F91089562
:100E10000F931F930091A0011091A1012091A201B5
:100E20003091A30160237123822393230E94E4065F
:100E30001F910F9108950F931F930091A00110919E
:100E4000A1012091A2013091A3016027712782277F
:100E500093270E94E4061F910F9108950E94E006D7
:100E600008950E942E0708950E94310760939C0107
:100E700070939D0180939E0190939F010E948E0626
:100E8000089560E070E0CB010E94340708950F934D
:100E90001F9341E050E060E070E08A019B0104C0D4
:100EA000000F111F221F331F8A95D2F7C901B80105
:100EB0000E9434071F910F9108950F931F9341E0F3
:100EC00050E060E070E004C0440F551F661F771FBC
:100ED0008A95D2F780919C0190919D01A0919E01ED
:100EE000B0919F018A019B01082B192B2A2B3B2BC8
:100EF000C901B8010E9434071F910F9108950F9303
:100F00001F9341E050E060E070E004C0440F551FC3
:100F1000661F771F8A95D2F7CB01BA01609570954D
:100F20008095909500919C0110919D0120919E01CA
:100F300030919F0160237123822393230E94340701
:100F40001F910F9108950F931F9341E050E060E0CF
:100F500070E004C0440F551F661F771F8A95D2F7B3
:100F600080919C0190919D01A0919E01B0919F0163
:100F70008A019B01082719272A273B27C901B801A5
:100F80000E9434071F910F9108950F931F930091B2
:100F90009C0110919D0120919E0130919F01602B39
:100FA000712B822B932B0E9434071F910F91089570
:100FB0000F931F9300919C0110919D0120919E0120
:100FC00030919F0160237123822393230E94340771
:100FD0001F910F9108950F931F9300919C01109101
:100FE0009D0120919E0130919F01602771278227EA
:100FF00093270E9434071F910F9108950895262F7B
:10100000277091E001C0990F2A95EAF723E07695C1
:1010100067952A95E1F725E0269FF001279FF00DBF
:101020001124E40FF51F50E040E0682F70E081913B
:10103000DF0111979B01042E02C0369527950A9473
:10104000E2F7217021952827292328272C934F5F29
:101050005F4F4530510559F70895A82FA77023E039
:10106000969587952A95E1F725E0289FF001299F1D
:10107000F00D1124E60FF71F50E040E080E02191D1
:1010800030E00A2E02C0369527950A94E2F72170C7
:101090003327042E01C0220F0A94EAF7822B4F5FF8
:1010A0005F4F4530510559F70895262F953070F45C
:1010B000863060F4682F70E086E0989F600D711DA7
:1010C000112448E851E0822F0E94FF070895292F3C
:1010D000953068F4863058F490E068E871E036E0C6
:1010E000239F800D911D11240E942D08089580E0FA
:1010F0000895B0E0A0E0EFE7F8E00C948C218C01BB
:10110000C0909C01D0909D01E0909E01F0909F01C5
:101110008091A0019091A101A091A201B091A301A1
:10112000C82AD92AEA2AFB2ACFE1D0E0BC2ED7016F
:10113000C6010C2E04C0B695A795979587950A947D
:10114000D2F780FD09C0219788F7B12C8B2DCDB740
:10115000DEB7E9E00C94A821B8018C2F0E94100F93
:10116000019789F3F3CFCF93DF93EC010E947908C5
:10117000BE010E94100FDF91CF9108951F93CF936E
:10118000DF93EB0190918701992339F0CB010E9405
:10119000B308DF91CF911F910895882369F0CB01A7
:1011A0000E947908182F682FCE010E945508BE01B1
:1011B000812F0E94100FEDCFCB010E946708182FDE
:1011C000F6CF1F93CF93DF93C091A40116E08091D7
:1011D000A5018C1304C0DF91CF911F910895D0E039
:1011E0001C9FF0011D9FF00D1124EA55FE4F408118
:1011F000518162817381848195810E94D6062196F6
:10120000C770E5CF4091D6015091D7016091D801C8
:101210007091D9018091DA019091DB010E94D6068C
:1012200008951F93CF93DF938091DB01807F09F0B6
:1012300049C08091D801882309F444C08091A40159
:10124000C091A5016091D6017091D701A091D901FB
:10125000B091DA01D62FD72316E0C81799F190E0A4
:10126000109711F0DF3F19F401968770F6CF189FA1
:101270009001199F300D1124F901EA55FE4F41816B
:101280004713F2CF40814613EFCF42814111ECCF9B
:10129000438154814A1B5B0B483C510528F78091E0
:1012A000DB018F7080618093DB01F901E555FE4F12
:1012B00080818F708061808386ED91E00E9464065A
:1012C0000E94E108DF91CF911F910895A1E1B0E064
:1012D000ECE6F9E00C948B218C0185E0F801DE014D
:1012E0001D9601900D928A95E1F7F801E28086ED56
:1012F000C82E81E0D82E6091D9017091DA01611574
:10130000710509F44EC19091D6012091D701892F22
:1013100082238F3F09F445C140815181A380B4806D
:10132000F090D801F501E61BF70BFF2009F4EAC0A5
:101330008091DB01382F307FE83CF10508F0A3C035
:1013400031116DC0FE2C251316C0941314C0E1108A
:1013500012C08F7080618093DB010E940209C60178
:101360000E9464068091DB01F80185838F2D6196D0
:10137000EAE00C94A721A114B10429F0842F85235D
:101380008F3F09F027C180E0F82FF170DF2E80FF3A
:101390003CC08091A4012091A50136E0821315C0C4
:1013A0004D875E878D859E850E94B308292F2295E3
:1013B0002F702230F0F0243018F59F70F1F0F80112
:1013C0009581907FD1F4D12C1EC090E0389FF00120
:1013D000399FF00D1124EA55FE4F6181651306C057
:1013E0006081641303C06281E6120FC001968770AA
:1013F000D5CF9F7011F0882331F3805E883018F3C9
:10140000C8010E946406FD2CB1CFEE2009F4AECFD6
:101410008091DB0181608093DB01F12CA7CF251344
:1014200006C0941304C0F801EE2009F487C0C80177
:101430000E94C406882319F1EE2009F18091DB0196
:10144000803270F02091D6013091D70138872F83F8
:101450001986BB86AA868C87CE0107960E946406F1
:1014600086E0F801A6EDB1E001900D928A95E1F7D2
:101470000E9411090E940209FF24F39477CFC8014A
:101480000E946406F9CF311113C07A2DB98AA88A57
:101490006E2D89890E94CC0686ED91E00E9464063B
:1014A00086E0F60111928A95E9F70E940209B5CF0C
:1014B00025130FC094130DC0E1100BC0F8018583F4
:1014C000C8010E94640686E0F60111928A95E9F748
:1014D0004DCFC8010E94C406882389F2EE2079F21C
:1014E0008091DB01803208F4BBCF2091D60130918E
:1014F000D7013A8329831B82BD82AC828E83CE01C1
:101500000196ACCFE83CF10508F03EC0FE2CEE2081
:1015100009F4B5CF25132AC0941328C08091DB01AC
:1015200080FD1BC0982F907FC1F0F8018583903F0C
:1015300031F0982F907F905F8F70892B8583C80141
:101540000E94640686E0F801A6EDB1E001900D92DC
:101550008A95E1F70E94020909CF86E0F801A6ED1D
:10156000B1E001900D928A95E1F700CFC8010E9489
:10157000C406811175CF8091DB0181608093DB010E
:10158000C8010E946406F2CE7A2DB98AA88A6E2D0F
:1015900089890E94CC0686E0F60111928A95E9F7C6
:1015A000D9CFEE2009F46BCFC8010E94C406F82EF3
:1015B000882309F464CF86E0F801A6EDB1E001903C
:1015C0000D928A95E1F786ED91E00E941A030E9440
:1015D0001109C0CF81E08E25D7CEACE0B0E0E3EFBB
:1015E000FAE00C9492214F83588769877A878B871A
:1015F0009C87CE0107960E946609882369F08A8538
:101600009B85892B39F04F815885842F85238F3F07
:1016100009F06BC016E05FC086E0FE013796DE0180
:10162000119601900D928A95E1F78A859B85892B09
:1016300089F388859F8189238F3F61F32091A501DC
:1016400030E0C9010196877099274091A40148179D
:10165000190671F40E94A4061092A5011092A4012B
:1016600086E0E6EDF1E0DF011D928A95E9F7D2CF41
:1016700096E0929FD001939FB00D1124AA55BE4FC2
:10168000FE01319601900D929A95E1F78093A501A4
:101690000E94E108BFCF819FC00111248A559E4F4F
:1016A0000E9466098823E9F0E091A4011E9FF001E1
:1016B0001124EA55FE4F40815181628173818481FA
:1016C00095810E94D6068091A40190E001968770D2
:1016D00099278093A4018091A4019091A501891379
:1016E000DACF2C96E3E00C94AE2169857A858B8560
:1016F0009C850E94D6068ECF682F80910001909124
:1017000001010E94F5180895682F809100019091C1
:1017100001010E9403190895809100019091010137
:101720000E94111908958091FC01859585958595F4
:1017300008958091FC01877008959091FC01977045
:1017400081E009F480E0089580911F02089590914E
:101750001F02892B80931F020895809590911F028C
:10176000982390931F02089510921F02089590915C
:101770001E02892B80931E020895809590911E026F
:10178000982390931E02089510921E02089580914E
:10179000FD01089508950E94CA0B0895909170026A
:1017A00092FF08C09091FD01981721F08093FD01F0
:1017B0000E94CB0B08958091FD01882329F010929F
:1017C000FD0180E00E94CB0B0895CF93DF93E09161
:1017D0000001F091010180911F028083E0910001DE
:1017E000F0910101808190911E02892B808390915C
:1017F000FD01992381F0E0910001F09101018081C8
:10180000892B808380910001909101010E946118D1
:1018100081110E94DB0BC0910001D091010140E2D7
:1018200050E06CED71E0CE010E94BA21892B59F095
:1018300080E2FE01ACEDB1E001900D928A95E1F7F6
:10184000CE010E940D18DF91CF91089508950E9456
:10185000260C08959091700292FF11C098E0899F24
:1018600090011124622B6093FC010E945D0780911E
:10187000FC018595859585950E94270C08950E9409
:101880005D0708951092FC0180E00E94270C0895E6
:101890009091FC01809589238093FC01282F27706B
:1018A00091F4282F082E000C330B9217130659F0D1
:1018B0009091700292FF07C08595859585950E944D
:1018C0007F070E94420C08959091700292FB22279C
:1018D00020F9281769F080FB92F9909370028091AB
:1018E0006F02909170020E94B50C82E00E94480C39
:1018F00008958091700282FB882780F991E0892702
:101900000E94640C089581E00E94640C089580E0B8
:101910000E94640C08956FEF7FEF90E080E00E94DA
:10192000F321089590E080E00E94CF2121E0883EDD
:101930009E4F09F020E0822F089582E090E00E94FF
:10194000C721089583E090E00E94C7210895CF93B6
:1019500084E090E00E94C721C82F82E290E00E94BC
:10196000C721982F8C2FCF910895CF93C92F682F1F
:1019700084E090E00E94D5216C2F82E290E00E94EA
:10198000D521CF910895AB01BC018FE090E00E947A
:10199000E7210895AB01BC0183E190E00E94E721BB
:1019A000089560E070E0CB010E94CA0C089560E0E9
:1019B00070E0CB010E94C30C0E94D10C089568EE28
:1019C0007EEF90E080E00E94F32160E082E090E012
:1019D0000E94D52160E083E090E00E94D521109222
:1019E000A0011092A1011092A2011092A30160E047
:1019F00084E090E00E94D52164E082E290E00E94C1
:101A0000D52160E085E090E00E94D52160E086E08D
:101A100090E00E94D5216FEF87E090E00E94D521F1
:101A200040E050E0BA0188E090E00E94E72160E0E9
:101A30008DE090E00E94D52140E050E0BA0188E1BD
:101A400090E00E94E72160E087E190E00E94D521CC
:101A500040E050E0BA018CE190E00E94E72170E0A4
:101A600060E080E290E00E94F32140E050E0BA01A3
:101A700088E190E00E94E7210E94D70C08950E941F
:101A8000DF0C0895682F8EE090E00E94D521089524
:101A90000E94DE196093290270932A0280932B0220
:101AA00090932C0260932502709326028093270264
:101AB000909328020895089508950E945C0D08955A
:101AC00008950E94600D08958FEE9FE00E94F61722
:101AD0000E945B0D0E945D0D089581E008950E94B3
:101AE0006D0D0895089508950E94720D0E94730D62
:101AF00008950E940B100E94C7020E94C815089505
:101B00000E94C9190E94DD100E94790D0E941814CC
:101B10000E94610D0895AAE0B0E0E1E9FDE00C94B7
:101B200089210E94F310982E81110E94480D80E2B5
:101B3000A82E82E0B82E10E000E0802E802F0E94B8
:101B40003810E82EF501C1905F01C816B1F18091FF
:101B50002D0281FD0E943E10D12CFF24F394CE244F
:101B60008C2D8F2129F10E946F0D882399F0DE8240
:101B70008F82EF2081E009F480E088870E94D219EB
:101B80008160782F9A8789874E815F8168858A85F1
:101B90000E94E502F801E05EFD4F8081F826F082A8
:101BA00081E0911001C080E02A96ECE00C94A52120
:101BB000D394FF0CF6E0DF12D3CF0F5F1F4F053039
:101BC000110509F0BACF8FEF89838A831B820E94A7
:101BD000D2198160782F9D838C8349815A816B81D2
:101BE0008D810E94E502DCCF0E948B0D0E94C715FB
:101BF0000E9408130E94DA020895CF93DF930E9497
:101C0000150FEC01811521E5920708F042C08115FE
:101C100030E5930708F09DC0883E910530F5803E81
:101C2000910508F092C0883A910588F4853A9105AB
:101C300008F084C08130910509F487C0009709F449
:101C400084C0049708F081C0D0E0C0E07EC08F3B24
:101C50009105D0F7C85AD0E0CC0FDD1FC85BDE4F2E
:101C60000990D881C02DD46470C08115904250F481
:101C7000C11581E0D80708F068C0CD3ED10520F33A
:101C8000D06563C0C11590E4D907F0F2DF70D06A67
:101C90005CC0811525E5920700F5811534E59307B1
:101CA00008F08BC0811543E5940708F073C0C11597
:101CB00082E5D80708F469C0CE018370992721E036
:101CC00030E002C0220F331F8A95E2F7C695C69511
:101CD00080E2C89FE001112454C0C11599E5D907DD
:101CE000A8F4C11528E5D20708F06CC0C11536E587
:101CF000D30708F0A9CF8C2F0E94AC0FC82FD0E0DB
:101D0000DC2FCC27CC27DF71D0621FC0C1154AE57C
:101D1000D40708F45CC0CE0190568115904208F0BB
:101D200093CF8D2F8F710E94AC0F90E0982F882752
:101D300088279F719C012C2BE901E6CFC55AD0E082
:101D4000CA58DE4FC881D0E0D064CE01DF91CF9178
:101D50000895E4E096958795EA95E1F783702C2F36
:101D600026952695237040E2249F90011124382B5C
:101D70008C2F8370C1E0D0E002C0CC0FDD1F8A95AC
:101D8000E2F7C22BD32BDC68E0CFDC2FCC27C16F6E
:101D9000D06ADBCF8370992721E030E002C0220FA8
:101DA000331F8A95E2F7C695C69590E2C99FE00178
:101DB0001124C22BD32BDA68C8CFD82FCC27C46FFD
:101DC000D06AC3CFDC2FCC27C06FD06ABECF8C2F98
:101DD0008F700E94AC0F34E0D695C7953A95E1F725
:101DE000CF709C2FEC01D069B0CF972F7530A8F43D
:101DF000663098F470E026E0929F600D711D11240A
:101E0000FB019EE1899FE00DF11D1124EE0FFF1FE4
:101E1000E455FF4F85919491089580E090E00895F6
:101E20000E94F50E0E94FD0D089582389105B1F1D2
:101E3000B0F48133910509F475C048F489329105F5
:101E400009F469C08A32910509F473C00895853395
:101E5000910509F459C08933910501F10895833E34
:101E60009105A9F138F4803E9105F9F0823E910583
:101E700049F10895863E9105A9F1873E9105C9F182
:101E8000843E910519F52091700221FF1FC08091B9
:101E90006F0284FD14C087EE90E0089520916F02D8
:101EA0002370A1F080EE90E0089520916F0220FD54
:101EB00047C03091700230FF09C024FF44C090E059
:101EC00080E004C020916F0222FDF7CF0895209199
:101ED0006F0222FD3BC03091700230FDE3CF24FF42
:101EE000F5CFEDCF20916F0223FFF0CF24FDE7CF98
:101EF000D2CF20916F0223FD2CC03091700231FFB0
:101F0000EECF84EE90E0089520916F0225FFDECFA2
:101F100089E290E0089520916F0225FFD7CF85E3F5
:101F200090E0089520916F0226FFD0CF8AE290E0E2
:101F3000089520916F0226FFC9CF81E390E00895B4
:101F400089E390E0089583EE90E0089582EE90E0BA
:101F5000089586EE90E0089590916F0292FF06C07A
:101F6000282F28712830F9F4877F846093FF06C0FA
:101F7000282F28712831F1F4877E84612091700226
:101F800020FF06C0382F38713830D9F4877F816040
:101F900021FF06C0282F28712831D1F4877E816166
:101FA00094FD877E0895282F24712430F9F68B7FC5
:101FB0008860DCCF282F2471243101F78B7E886163
:101FC000DDCF382F3171313019F78E7F8860E0CF47
:101FD000282F2171213121F78E7E8861E1CF80E0A9
:101FE00008950E948B0C08950E94F3108FE39CE9E2
:101FF0000197F1F700C000000E94F31080E00E94FA
:10200000381080FF04C00E94F10F0E941D1A08952D
:102010000E94F40F08950E94920C811102C00E9448
:102020003F0D0E949D0C80932D020E94A70C90935F
:10203000700280936F020E9408100E94A20C682F09
:1020400070E090E080E00E94F20660919C01709147
:102050009D0180919E0190919F010E9431070895FA
:1020600008950E943010089508950E943410089534
:10207000E82FF0E0EA58FD4F80810895089580EA46
:102080008A95F1F7089500C008950E943F100895C1
:10209000F894E82FE295EF70F0E031A1282F2F702F
:1020A00081E090E001C0880F2A95EAF7982F90957B
:1020B000932391A392A1892B82A3789408950F93DF
:1020C0001F93CF93DF93CFE7D1E089918F3F11F03A
:1020D0000E94481081E0C438D807B9F7C9E7D1E0B9
:1020E0000FE711E089918F3F11F00E9448100C1703
:1020F0001D07C1F7DF91CF911F910F910895B0E0B7
:10210000A0E0E5E8F0E10C948D21EC01D62E062F3D
:1021100010E0C80181589E4F7C01FC0180818F3FF7
:1021200009F444C0F894E82FE295EF70F0E091A133
:102130008F7021E030E001C0220F8A95EAF7892FE5
:10214000822B81A382A12095282322A378940E9428
:102150004310E9E7F1E031E0C12C21912F3F59F123
:10216000A22FA295AF70B0E090968C9190E02F7066
:1021700002C0959587952A95E2F780FD1CC0832FB4
:10218000C82A330F81E0EF37F80739F7F70180816C
:102190008F3F11F00E94481061E0C11001C060E063
:1021A0008D2D0E944510C00FD11FC882CDB7DEB75C
:1021B000E8E00C94A92180E0E3CF0E945F1085E065
:1021C000E6E7F2E0DF01982F1D929A95E9F7E1E743
:1021D000F2E0DF011D928A95E9F785E00E942F1158
:1021E0000E9436020895A5E0B0E0E9EFF0E10C941A
:1021F00090218E010F5F1F4F85E0F80111928A95A3
:10220000E9F7F12C6F2DC8010E947F10F394F5E0DF
:10221000FF12F8CF45E050E0B80181E792E00E945C
:10222000BA21FF24F394009709F4F12C892B41F093
:1022300085E0F801A1E7B2E001900D928A95E1F7FF
:102240002F2D45E066E772E081E792E00E943011B1
:102250000E9439028F2D2596E5E00C94AC2108955B
:10226000FF920F931F93CF93DF93F82E092F162F12
:10227000D72FC42F222349F081E0809330020E949F
:10228000D21990932F0280932E02809130028823DE
:10229000A1F080912E0290912F020E94EA190597D9
:1022A00060F0EF2DF02FA12FBD2FCE0FDF2FD11D0E
:1022B000EC17FD0739F410923002CDB7DEB7E5E038
:1022C0000C94AC2181918D93F3CF0E94E41B0E946A
:1022D000800D0E94F11B08950E94F61B0E94F40DD0
:1022E0000E94101C08950E946B190E94CA1B0E9434
:1022F000640D0E9465110E946C110E94740DFBCF49
:102300008091370280FF0DC06091070170E0660F79
:10231000771F6038710570F56115710569F1862FB9
:10232000089581FF07C06091070184E0689FB001B4
:102330001124EFCF6091070182FD0AC0809136021F
:102340008823A9F02091060160910701821710F0FF
:1023500088E0ECCF869FC001112433E0880F991FDD
:102360003A95E1F7622F70E00E942D21D2CF68E00C
:1023700070E0D5CF8FE7089581E00895809137020E
:1023800080FF0CC06091030170E0759567957595AD
:1023900067956115710549F1862F089581FF06C083
:1023A0006091030170E075956795F3CF609103012B
:1023B00082FD0BC0909135029923A1F0609102013A
:1023C00080910301961738F0682F70E0603871052E
:1023D00000F38FE70895899FC001112470E00E94E7
:1023E0002D21F4CF61E070E0D7CF81E008958D3EDC
:1023F00031F40E948011819580933B0208958E3EB6
:1024000019F40E948011F8CF8F3E31F40E948011A0
:10241000819580933A020895803F19F40E948011BB
:10242000F8CF893F29F40E94BE1180933C020895A1
:102430008A3F21F40E94BE118195F7CF8B3F31F482
:102440000E94BE11819580933D0208958C3F19F43E
:102450000E94BE11F8CF9FE0980F983070F4815F12
:10246000990B21E030E001C0220F8A95EAF78091B4
:102470003902822B8093390208958D3F31F4809187
:10248000370281608093370208958E3F21F4809156
:1024900037028260F7CF8F3FB9F7809137028460AF
:1024A000F1CF40913A028D3E59F480913B0287FF73
:1024B0000DC010923B0241110BC01092360208C0B1
:1024C0008E3E81F480913B0218169CF3442381F0E8
:1024D00080913C0290913D02892B09F05AC01092E4
:1024E000350208958F3E49F447FFF0CF10923A022B
:1024F00080913B028111ECCFE0CF803F19F414169C
:10250000ACF3E4CF90913C02893F29F41916F4F61C
:1025100010923C02DBCF8A3F19F497FFD7CFF8CF58
:1025200090913D028B3F29F497FFD0CF10923D024E
:10253000CDCF8C3F19F41916CCF3C8CF9FE0980F7C
:10254000983090F4815F990B21E030E0B90102C02E
:10255000660F771F8A95E2F7CB018095909139023B
:10256000892380933902B2CF8D3F31F480913702B5
:102570008E7F80933702AACF8E3F21F4809137025D
:102580008D7FF7CF8F3F09F0A1CF809137028B7FEE
:10259000F0CF08950E94D2199C0190913A02809147
:1025A0003B02982B21F03093340220933302909118
:1025B0003C0280913D02982B21F03093320220930F
:1025C000310288E392E00E942718089586E0E8E34C
:1025D000F2E0DF011D928A95E9F71092360210921F
:1025E0003502109237020895FC01828181110EC0DC
:1025F000838181110BC08481811108C091E08581A4
:10260000811101C090E0892F8170089581E0FCCF95
:10261000A6E0B0E0EEE0F3E10C94922186E0E8E37E
:10262000F2E0DE01119601900D928A95E1F7109289
:102630003A0210923B0210923C0210923D028B81B2
:102640009C81892B89F080913302909134020E9401
:10265000EA19AC01909136029923C9F180910801E1
:102660008417150608F440C08D819E81892B91F056
:1026700080913102909132020E94EA19AC0190914E
:102680003502992309F471C080910401841715065D
:1026900008F479C0BE016F5F7F4F88E392E00E942B
:1026A0002319811105C088E392E00E94F412811180
:1026B0000E94CA1286E0FE013196A8E3B2E00190C2
:1026C0000D928A95E1F72696E3E00C94AE212091D5
:1026D00009018AE0289F900111242417350720F66C
:1026E0009F5F9093360202C09F3FD1F71B81112359
:1026F00059F00E9480119FEF11160CF491E0899F10
:10270000802D112480933A021C81112359F00E94DC
:1027100080119FEF11160CF491E0899F802D1124F8
:1027200080933B0230913A02332309F49DCF2091EC
:102730003B02222309F498CF45EB3403C001112456
:10274000992359F090933A0245EB24039001112408
:10275000332339F030933B0287CF81E080933A02F4
:10276000F3CF81E080933B027FCF209105018AE087
:10277000289F900111242417350708F08BCF9F5F05
:102780009093350202C09F3FD1F71D81112359F06C
:102790000E94BE119FEF11160CF491E0899F802DCD
:1027A000112480933C021E81112359F00E94BE1116
:1027B0009FEF11160CF491E0899F802D11248093D6
:1027C0003D0230913C02332309F464CF20913D0255
:1027D000222309F45FCF45EB3403C0011124992370
:1027E00059F090933C0245EB2403900111243323CC
:1027F00039F030933D024ECF81E080933C02F3CF1D
:1028000081E080933D0246CF86E090E00E94C721A0
:102810000895682F86E090E00E94D5210895EBE7A7
:10282000F2E080818470896180830E940914089598
:102830000E94920C811104C00E943F0D0E940F144F
:102840000E94041480937B02803220F0877088619C
:1028500080937B0290917B02892F817090FF04C04E
:10286000892F8695869586950E94211508958091D9
:102870007B02982F969596959695933040F49F5F9E
:10288000990F990F990F8770892B80937B02809104
:102890007B02816080937B020E94091480917B02FD
:1028A0008695869586950E942115089580917B02D4
:1028B000982F987F79F0885080937B02887F91E0F1
:1028C00009F490E080917B0290FB80F980937B0279
:1028D0000E94091480917B028695869586950E94B8
:1028E0002115089580917B0280FD13C08160809343
:1028F0007B02813019F489E080937B0280917B0216
:102900000E94091480917B028695869586950E9487
:102910002115089580917B0280FF08C08E7F8093EF
:102920007B020E94091480E00E9421150895809185
:102930007B0280FF03C00E948A1408950E947214D3
:10294000089590917B02892F8695869586958F5F55
:102950008F7197708430E0F4880F880F880F892B6F
:1029600080937B0280917B02887F91E009F490E064
:1029700080917B0290FB80F980937B020E94091476
:1029800080917B028695869586950E9421150895F3
:1029900090937B02E7CF843008F083E090917B0234
:1029A0009770282F220F220F220F922B90937B02D9
:1029B000987F21E009F420E090917B0220FB90F9C0
:1029C00090937B020E94211508950E94CB14809160
:1029D0007B020E94091408959C01FB0182818823D7
:1029E00049F12E3BFCE53F07C9F040F42C3BECE5F8
:1029F0003E0769F02D3B3C4579F00895203C9CE56D
:102A0000390791F070F0213C3C4589F0089583E04E
:102A10000E94E51480E0089580E0FACF0E945614E9
:102A2000F9CF0E943714F6CF0E949714F3CF0E947B
:102A3000A114F0CF81E00895259A2D9808952D983E
:102A400008958F929F92AF92BF92EF92FF920F9351
:102A50001F93CF93DF93C82F8430C0F5811137C007
:102A6000809180008F77809380000E941F15A09135
:102A70008600B09187002C2F30E00E94692123E06E
:102A800030E040E050E00E94412189019A018091AC
:102A90008600909187006CE070E00E941921601719
:102AA0007107D8F0C80169E070E00E9419217093A5
:102AB000890060938800DF91CF911F910F91FF9063
:102AC000EF90BF90AF909F908F900895C3E080915A
:102AD0008000806880938000CACF809186009091AA
:102AE0008700E0908600F0908700E0918600F091EA
:102AF0008700C6E0D0E0BE010E941921060F171F13
:102B0000211D311D4801590185E0880C991CAA1C22
:102B1000BB1C8A95D1F7C701BE010E9419219F01F4
:102B200050E040E0260F371F411D511DC501B40183
:102B30000E94412149015A01E0918600F0918700ED
:102B4000CA01B9010E9409219B01AC01DF010E9469
:102B500078219B01AC01C501B4010E9409212FE03D
:102B600096958795779567952A95D1F70091860078
:102B70001091870030E020E0061717072807390773
:102B800008F095CF609186007091870090CF0895EE
:102B90000E941C1582E88093800089E18093810067
:102BA0008FEF9FEF90938700809386000E94181408
:102BB0000895CF93DF93EC01FB018281882309F410
:102BC00033C1C430FDE5DF07C0F5CB3F9CE5D90735
:102BD00030F49E0122503C4524313105B0F50E946D
:102BE000A70C9093700280936F02C1318CE5D807D7
:102BF00009F4EEC008F069C0C930ECE5DE0709F45D
:102C0000D5C0C8F5C5308CE5D80709F4C7C000F5B4
:102C1000C330ECE5DE0709F4B9C008F0BBC0C23030
:102C2000DC4509F4ADC080916F02909170020E9462
:102C3000B50C0E94A40680E008C0C236EDE5DE07B0
:102C400071F2C63AFDE5DF0751F2DF91CF910895A9
:102C500080916F028062C7309CE5D90709F493C068
:102C600080916F028061C830DC4508F48CC080918F
:102C70006F02806488C080916F028B7FCD30FCE54D
:102C8000DF0709F480C098F480916F028E7FCB300B
:102C90009CE5D90709F477C080916F028C60CC3035
:102CA000DC4508F470C080916F028D7F6CC080910C
:102CB0006F028F7ECF30FCE5DF0709F464C008F4B3
:102CC0007BC080916F028F7D5EC0CE3F9CE5D907AF
:102CD00009F47AC050F5C531FCE5DF0709F486C078
:102CE00098F480916F02837FC3319CE5D90709F482
:102CF0004AC008F471C00E94A40690916F02892F07
:102D000097FB87F980583FC0CC3FFCE5DF0709F40B
:102D100049C008F055C0809170028160CB3FDC450E
:102D200009F081CF809370027ECFC230EDE5DE07DF
:102D300009F468C0A8F4C1158DE5D80709F452C09C
:102D4000809170028360C130DD4560F38091700234
:102D5000982F909591708E7F892B90FB81F9E2CF0F
:102D6000C236EDE5DE0709F451C0C63AFDE5DF07DE
:102D700009F453C0C330DD4509F055CF80E043C0AE
:102D800080916F02816080936F024DCF80916F02BE
:102D90008260F9CF80916F028460F5CF80916F02DD
:102DA0008860F1CF809170028260BCCF0E94A4063F
:102DB00080916F028068E7CF80916F02877FE3CFB9
:102DC000809170028E7FAECF809170028D7FAACFEE
:102DD00080916F028F7BD7CF0E94A40680916F02F3
:102DE0008F77D1CF809170028C7F9CCF80916F02C2
:102DF00082FB992790F921E0922790FB82F990FBC2
:102E000083F9C1CF81E00E94420D0DCF90916F02F6
:102E1000892F8F7E94FF8061B6CF90916F02892FAA
:102E20008E7F90FF8160AFCF81E00FCFCF93DF9394
:102E3000EB0186319C4511F50E94A40B9A819923E0
:102E400099F08A7A91E009F490E090933E02811122
:102E500009C089E20E947C0B0E94E50B80E0DF91B3
:102E6000CF91089585E3F6CF80913E02811104C091
:102E700089E20E94840BF0CF85E3FBCF81E0EFCFA6
:102E80000F931F93CF93DF93C42FD22FFC01828126
:102E90008823C9F0409341020E94D21990934002C6
:102EA00080933F0280E28C0F883040F4C77081E04D
:102EB00001C0880FCA95EAF70E942B04DF91CF91D9
:102EC0001F910F91089510914102141332C0809107
:102ED0003F02909140020E94EA19883C910548F512
:102EE000C0E2CD0F1D17B9F080E2810F883040F4A9
:102EF000177081E001C0880F1A95EAF70E9432042A
:102F0000C83048F481E09D2F977001C0880F9A95D2
:102F1000EAF70E942B04802F0E942204C83070F62A
:102F2000D77081E001C0880FDA95EAF70E94320479
:102F3000C5CF80E28C0F883008F6C77081E001C0F1
:102F4000880FCA95EAF7F2CF0F939C01CB01243F7B
:102F50004CE5340759F1A8F4293DFCE53F0701F1A0
:102F60002A3D4CE53407D1F1283D3C4591F406E279
:102F700021EE41EE68ED7CE50E94401780E00F9164
:102F80000895263FFCE53F07E9F0B0F0273F3C45B8
:102F9000F9F0FC018281882339F110924102EFCFD0
:102FA00007E225EE45EE69ED7CE5E6CF06E221EE8F
:102FB00040EE64EF7CE5E0CF07E225EE44EE65EFFE
:102FC0007CE5DACF06E221EE42EE66EF7CE5D4CF77
:102FD00007E225EE46EE67EF7CE5CECF08E221E082
:102FE00045EE6AED7CE5C8CF81E0C9CF90938501BD
:102FF0008093840108959093470280934602089538
:10300000E0914602F0914702309729F00190F0815B
:10301000E02D0995089580E00895E0914602F09131
:103020004702309799F020911601222359F0209100
:103030006F0227FF07C0DC012C9111962C9311978A
:1030400026E02C930280F381E02D09950895E0910C
:103050004602F0914702309739F022E0DC012C93D0
:103060000480F581E02D0995089520914402309166
:1030700045022817390771F0909345028093440266
:10308000E0914602F0914702309721F00680F781E7
:10309000E02D0995089520914202309143022817AE
:1030A000390771F09093430280934202E091460207
:1030B000F0914702309721F00084F185E02D0995C9
:1030C0000895FC01329680911601882321F08091A9
:1030D0006F029EE187FF96E080E0915008F408952A
:1030E00021912223D1F38F5FF8CF662301F1209144
:1030F00016012223F1F020916F0227FF1AC0462FFC
:103100004695469546954E3190F4677021E030E043
:1031100002C0220F331F6A95E2F7840F911DFC0154
:10312000828190E02823392381E0232B69F480E019
:103130000895FC01329608962191261721F0E81790
:10314000F907D1F7F4CF81E008959C01FC01329694
:103150009FEF80E04191461751F09F3F19F44111D4
:1031600001C0982F8F5F8630A9F79F3F09F408951B
:10317000290F311D97FD3A95F90162830895FC01ED
:10318000329608962191261303C0DF0111971C92F5
:10319000E817F907B9F70895E62FE695E695E6955D
:1031A000EE3168F4E80FF92FF11D677021E030E08F
:1031B00001C0220F6A95EAF78281822B82830895EB
:1031C000E62FE695E695E695EE3170F4E80FF92FD7
:1031D000F11D677021E030E001C0220F6A95EAF727
:1031E000209582812823228308952091160122238D
:1031F00039F020916F0227FF03C00E94CC18089578
:103200000E94A518089520911601222339F02091DB
:103210006F0227FF03C00E94E01808950E94BF18A4
:103220000895FC01329680911601882351F0809117
:103230006F0287FF06C08EE1DF011D928A95E9F7D4
:10324000089586E0F9CF46E050E00E94BA2121E0DF
:10325000892B09F420E0822F089508950E942D19EA
:103260000895811106C081E0809348020E942E19C2
:10327000089582E0F9CF83E0809348020E942E19DE
:1032800008950E943119089581E0809348020E94B8
:103290002E1908950E9444190895089508950E94D2
:1032A0004E190895089508950E944D190895CF93D9
:1032B0000E9452190E94F3100E945319C0E08C2FF3
:1032C0000E943810811105C0CF5FC530C1F7CF9182
:1032D000089581E0FCCF85B7806885BF85B7806899
:1032E00085BF08951F921FB61F9211248F939F933D
:1032F000AF93BF9380914902811113C080917C02EA
:1033000090917D02A0917E02B0917F024196A11D15
:10331000B11D80937C0290937D02A0937E02B093B6
:103320007F02BF91AF919F918F911F901FBE1F9001
:10333000189580918402843031F10E94AF0210927E
:10334000490288E190E020E40FB6F894A8958093B4
:1033500060000FBE2093600083B7817F846083BFCD
:1033600083B7816083BF7894889583B78E7F83BF4E
:103370000FB6F894A89580916000886180936000F2
:10338000109260000FBE08950E94A4060E94B7022A
:10339000089582E084BD93E095BD9AEF97BD809338
:1033A0006E0008952FB7F89480917C0290917D0271
:1033B000A0917E02B0917F022FBF08952FB7F8949D
:1033C00060917C0270917D0280917E0290917F02DB
:1033D0002FBF08959C014FB7F89480917C02909183
:1033E0007D02A0917E02B0917F024FBF821B930BA2
:1033F000089578941F921FB61F9211248F939F9364
:10340000AF93BF9380917C0290917D02A0917E0248
:10341000B0917F020196A11DB11D80937C02909313
:103420007D02A0937E02B0937F02BF91AF919F91E6
:103430008F911F901FBE1F90189587E797E7909375
:1034400001088093000888E19AE00FB6F894A895E7
:10345000809360000FBE90936000FFCF88E19AE0F8
:103460000FB6F894A895809360000FBE909360000B
:10347000FFCF80916D02089508959C0182E08093B2
:10348000E9009FEF8091E800915085FD06C085ED31
:103490008A95F1F700009111F5CF8091E80085FF42
:1034A0000CC050E040E066E070E0C9010E94821C60
:1034B0008091E8008E778093E8000895CF93DF93A2
:1034C000EC01809116018823B1F180916F0287FF92
:1034D00032C060E282E08093E9008FEF9091E800D3
:1034E000815095FD06C095ED9A95F1F70000811188
:1034F000F5CF8091E80085FF1BC08091160170E038
:1035000050E040E0811104C050E040E068E070E02D
:10351000CE010E94821C8091E8008E778093E800A3
:1035200080E2FE01ADE4B2E001900D928A95E1F7F0
:10353000DF91CF91089568E081E0CDCF80934A027A
:1035400070934C0260934B0280918402843001F5A9
:1035500082E08093E9008FEF9091E800815095FD23
:1035600006C095ED9A95F1F700008111F5CF809195
:10357000E80085FF0DC050E040E063E070E08AE4C1
:1035800092E00E94821C8091E8008E778093E80090
:103590000895BC0184E00E949E1A0895BC0183E056
:1035A0000E949E1A089580918302811109C00E9491
:1035B000121E0E946F1E8091E20084608093E200E0
:1035C00008951092830208950E944419089560910D
:1035D000800281E0611101C080E00E943B190895E2
:1035E0009091840281E0943009F080E06091800243
:1035F0000E944119089542E061EC81E00E948E1D15
:1036000042E261EC82E00E948E1D9091840281E092
:10361000943009F080E0609180020E943119089591
:1036200080918602833009F461C030F48130D1F199
:10363000823009F49EC008958A3009F48AC08B3024
:1036400009F46FC0893009F050C080918502813241
:1036500009F04BC08091890290918A02029708F08C
:1036600044C08091E800877F8093E8008091E80063
:1036700082FF37C09091F3008091F200029731F4FD
:103680008091F100813011F0863021F48091F100B9
:1036900080936D028091E8008B778093E8000E9410
:1036A000C21D23C080918502813AF9F48091E8001F
:1036B000877F8093E8008091890290918A02892B0C
:1036C00061F460E28DE492E070E00E94D11C809190
:1036D000E8008B778093E800089560E090E080E058
:1036E000F3CF809184028111C1CF0895809185022A
:1036F000813AD9F78091890290918A02892BA9F7A2
:103700008091E800877F8093E8008091E80080FF47
:10371000FCCF809116018093F1008091E8008E77B4
:10372000BCCF80918502813201F78091890290910E
:103730008A02892BD1F68091E800877F8093E80088
:103740000E94C21D80918702809316010E94A406E8
:10375000089580918502813241F68091E800877F4B
:103760008093E8000E94C21D8091880280936E02BF
:10377000089580918502813A09F0B7CF8091E800E1
:10378000877F8093E8008091E80080FFFCCF8091E4
:103790006E02C1CF84B7877F84BF0FB6F894A89517
:1037A00080916000886180936000109260000FBE7D
:1037B00080E890E00FB6F8948093610090936100E8
:1037C0000FBE0E944A1908950E94121E0E946F1E89
:1037D000E2EEF0E080818460808378940E94EE20A5
:1037E00008958AE091E00E94FB1708958091840279
:1037F000853031F480918402853019F00E94C4191B
:1038000008950E94991980918202882399F30E9459
:103810005719882379F30E946C1C0E94A406EACFF2
:1038200008950E94141C0895292F33272330310551
:1038300019F168F42130310509F444C02230310512
:1038400009F445C090E080E030E020E025C021325E
:10385000310549F122323105A9F780E490E02FE4E7
:1038600033E061157105C1F086EB90E029E932E0A3
:103870006130710589F0E6CF99278130910581F09B
:10388000009729F00297F1F6E4E1F2E002C0E8E4E3
:10389000F2E0849190E09F01FA0131832083089542
:1038A000E6E2F2E0F6CF89E090E02EE532E0611545
:1038B000710591F389E090E027E732E0613071050E
:1038C00059F3C0CF82E190E027E832E0E5CF8BE307
:1038D00090E02CE432E0E0CF80E189BD82E189BD57
:1038E00009B400FEFDCF8091D8008F7D8093D80071
:1038F0008091E00082608093E0008091E00081FD93
:10390000FCCF0895AF92BF92CF92DF92FF920F93B8
:103910001F93CF93DF936C01EB018A010E94E11D9D
:10392000F82E811123C00115110539F0F8018081AD
:103930009181C81BD90BC80ED91EB12CA12C209780
:10394000A9F08091E80085FD22C08091E8008E7783
:103950008093E80001151105A1F0F80180819181A3
:10396000A80EB91EB182A08285E0F82E8F2DDF91BE
:10397000CF911F910F91FF90DF90CF90BF90AF90AC
:1039800008950E94E11D8823D1F2F82EEFCFF601B1
:1039900081916F018093F1002197FFEFAF1ABF0A69
:1039A000CECFFC0180918B0290918C0286179707F5
:1039B000A0F06115710529F49091E8009E7790932D
:1039C000E80090E06115710551F4911108C08091F3
:1039D000E80082FF34C080E00895BC01F2CF8091FE
:1039E00084028823C1F18530C1F18091E80083FD14
:1039F00030C08091E80082FDEACF8091E80080FF2E
:103A0000E1CF8091F3002091F200382F611571050C
:103A100019F02830310558F091E02830310509F0CF
:103A200090E02091E8002E772093E800CBCF8191A1
:103A30008093F100615071092F5F3F4FE7CF809174
:103A40008402882341F0853041F08091E80083FFB3
:103A5000BECF81E0089582E0089583E00895FC01DF
:103A600080918B0290918C0286179707A0F06115C8
:103A7000710529F48091E8008E778093E80090E04A
:103A80006115710551F4911108C08091E80082FF21
:103A900035C080E00895BC01F2CF80918402882374
:103AA000C9F18530C9F18091E80083FD31C0809172
:103AB000E80082FDEACF8091E80080FFE1CF8091AD
:103AC000F3002091F200382F6115710519F02830AC
:103AD000310558F091E02830310509F090E08091EF
:103AE000E8008E778093E800CBCF84918093F1003B
:103AF0003196615071092F5F3F4FE6CF809184026C
:103B0000882341F0853041F08091E80083FFBDCFEC
:103B100081E0089582E0089583E00895982F97301A
:103B200028F08F708093E90081E008959093E90078
:103B3000242F762F50E0981731F07091EC002091EF
:103B4000ED005091F00021FD02C09F5FE8CF309161
:103B5000EB003E7F3093EB003091ED003D7F3093E2
:103B6000ED003091EB0031603093EB007093EC008E
:103B70002093ED005093F0002091EE0027FDE5CF5B
:103B800080E008958091850287FF13C08091E8004E
:103B900082FF06C08091E8008B778093E80004C024
:103BA000809184028111F2CF08958091840288234C
:103BB000D9F38091E80080FFF8CF8091E8008E77FC
:103BC000ECCF2091E4003091E50095E6A901209129
:103BD000EC00822F817020FF06C08091E80080FFFA
:103BE00006C080E008952091E80022FD1AC080916F
:103BF0008402882389F0853089F08091EB0085FD6F
:103C00000FC02091E4003091E50042175307F9F20C
:103C10009150E1F684E0089582E0089583E00895EC
:103C200081E008950E94811E0E94891EE0EEF0E06E
:103C3000808181608083E8EDF0E080818F778083F0
:103C400019BCA7EDB0E08C918E7F8C9380818F7E24
:103C500080831092830208950F931F93CF93DF9375
:103C60000E94811E0E94891EC8EDD0E088818F7756
:103C7000888388818068888388818F7D888319BC48
:103C8000109284021092800210928202109281029D
:103C900000EE10E0F80180818B7F80838881816055
:103CA000888342E060E080E00E948E1DE1EEF0E05B
:103CB00080818E7F8083E2EEF0E08081816080836E
:103CC000808188608083F80180818E7F80838881F5
:103CD00080618883DF91CF911F910F910895E8ED66
:103CE000F0E080818F7E8083E7EDF0E0808181606D
:103CF000808384E082BF81E0809383020E942C1E37
:103D00000895E8EDF0E080818E7F80831092E200DC
:103D100008951092DA001092E10008951F920F9218
:103D20000FB60F9211242F933F934F935F936F938E
:103D30007F938F939F93AF93BF93EF93FF93809164
:103D4000E10082FF0BC08091E20082FF07C08091FA
:103D5000E1008B7F8093E1000E94ED208091DA00EA
:103D600080FF19C08091D80080FF15C08091DA00D3
:103D70008E7F8093DA008091D90080FF96C080E129
:103D800089BD82E189BD09B400FEFDCF81E0809349
:103D900084020E94D31A8091E10080FF19C08091B3
:103DA000E20080FF15C08091E2008E7F8093E200E8
:103DB0008091E20080618093E2008091D80080626F
:103DC0008093D80019BC85E0809384020E94E71A92
:103DD0008091E10084FF2BC08091E20084FF27C026
:103DE00080E189BD82E189BD89B5982F917080FFFE
:103DF000FBCF8091D8008F7D8093D8008091E10027
:103E00008F7E8093E1008091E2008F7E8093E200BC
:103E10008091E20081608093E2008091800288239B
:103E200009F449C084E0809384020E94F01A8091D2
:103E3000E10083FF29C08091E20083FF25C08091CB
:103E4000E100877F8093E10082E0809384021092FA
:103E500080028091E1008E7F8093E1008091E200FA
:103E60008E7F8093E2008091E20080618093E20087
:103E700042E060E080E00E948E1D8091F00088604A
:103E80008093F0000E94E41AFF91EF91BF91AF91EF
:103E90009F918F917F916F915F914F913F912F9162
:103EA0000F900FBE0F901F90189519BC10928402AE
:103EB0000E94E11A70CF8091E30087FD93E0909318
:103EC0008402B3CF1F920F920FB60F9211242F933B
:103ED0003F934F935F936F937F938F939F93AF9392
:103EE000BF93CF93DF93EF93FF93D091E900DF70FF
:103EF0008091EC00C82FC17080FDC0E81092E900ED
:103F00008091F000877F8093F00078940E94A61F34
:103F10001092E9008091F00088608093F000CD2B32
:103F2000CF70C093E900FF91EF91DF91CF91BF91E6
:103F3000AF919F918F917F916F915F914F913F9141
:103F40002F910F900FBE0F901F901895AAE2B0E02E
:103F5000ECEAFFE10C94922185E892E02091F100D7
:103F6000FC012193CF01F2E08D389F07B9F70E9441
:103F7000101B8091E80083FF1EC180918502909103
:103F800086029A3008F017C1E92FF0E0E95EFD4D96
:103F90000C946321803899F0823809F00CC180912B
:103FA00089028F70873008F006C18093E900809104
:103FB000EB0085FB882780F91092E90006C080910C
:103FC000810290918202911182609091E800977F26
:103FD0009093E8008093F1001092F1008091E80046
:103FE0008E77E5C0882309F4D3C0823009F0E3C09E
:103FF000809187028111D6C0809189028F702FEF46
:10400000280F263008F0D7C08093E9002091EB00FC
:1040100020FFC8C0933031F48091EB008062809320
:10402000EB00C0C09091EB0090619093EB0021E019
:1040300030E001C0220F8A95EAF72093EA0010923F
:10404000EA008091EB008860EACF8111B4C0109142
:1040500087021F778091E3008078812B8093E300B3
:104060008091E800877F8093E8000E94C21D8091C4
:10407000E80080FFFCCF8091E30080688093E3003C
:1040800082E0111183E08093840295C080588230D1
:1040900008F091C080918702909188028C3D23E0C6
:1040A0009207A1F583E08A838AE289834FB7F89467
:1040B000DE01139620E03EE051E2E32FF0E0509362
:1040C0005700E49120FF03C0E295EF703F5FEF706F
:1040D0008E2F90E0EA30C0F0C7968D939D932F5FAE
:1040E000243159F74FBF8091E800877F8093E80023
:1040F0006AE270E0CE0101960E94D11C8091E80036
:104100008B778093E80057C0C096E7CF6091890213
:1041100070918A02AE014F5F5F4F0E94111CBC017B
:10412000892B09F448C09091E800977F9093E800AC
:1041300089819A810E942F1DE1CF8038E1F580911D
:10414000E800877F8093E800809180028093F100EF
:1041500045CF811130C090918702923060F58091F7
:10416000E800877F8093E800909380020E94C21D40
:1041700080918002882311F084E005C08091E300E3
:1041800087FDFACF81E0809384020E94FB1A13C05E
:1041900080918702813079F481E0933009F080E0EA
:1041A000809382021092E9008091E800877F8093DB
:1041B000E8000E94C21D8091E80083FF0AC0809140
:1041C000E800877F8093E8008091EB008062809315
:1041D000EB00AA96E3E00C94AE210895CF93809172
:1041E00084028823A1F0C091E900CF709091EC0087
:1041F000892F817090FD80E8C82B1092E900809192
:10420000E80083FD0E94A61FCF70C093E900CF9104
:104210000895DB018F939F930E947821BF91AF9106
:10422000A29F800D911DA39F900DB29F900D112410
:104230000895AA1BBB1B51E107C0AA1FBB1FA617ED
:10424000B70710F0A61BB70B881F991F5A95A9F73F
:1042500080959095BC01CD01089597FB072E16F42B
:10426000009407D077FD09D00E94192107FC05D0E2
:104270003EF4909581959F4F0895709561957F4F7D
:104280000895A1E21A2EAA1BBB1BFD010DC0AA1F97
:10429000BB1FEE1FFF1FA217B307E407F50720F0AF
:1042A000A21BB30BE40BF50B661F771F881F991F2A
:1042B0001A9469F760957095809590959B01AC0173
:1042C000BD01CF010895EE0FFF1F0590F491E02D81
:1042D0000994A29FB001B39FC001A39F700D811DDF
:1042E0001124911DB29F700D811D1124911D0895FF
:1042F0000E946921A59F900DB49F900DA49F800DF1
:10430000911D112408952F923F924F925F926F92C8
:104310007F928F929F92AF92BF92CF92DF92EF9255
:10432000FF920F931F93CF93DF93CDB7DEB7CA1BD6
:10433000DB0B0FB6F894DEBF0FBECDBF09942A8801
:10434000398848885F846E847D848C849B84AA84A9
:10435000B984C884DF80EE80FD800C811B81AA8136
:10436000B981CE0FD11D0FB6F894DEBF0FBECDBF01
:10437000ED010895FB01DC0104C08D9101908019CD
:1043800021F441505040C8F7881B990B0895F999C2
:10439000FECF92BD81BDF89A992780B50895A8E116
:1043A000B0E042E050E00C94FB21262FF999FECFBB
:1043B00092BD81BDF89A019700B4021639F01FBA78
:1043C00020BD0FB6F894FA9AF99A0FBE0895039695
:1043D000272F0E94D6210E94D521252F0E94D62169
:1043E000242F0C94D6210196272F0E94D6210C94BD
:1043F000D521DC01CB01FC01F999FECF06C0F2BD4D
:10440000E1BDF89A319600B40D9241505040B8F792
:104410000895F894FFCF74047404A504A50432052C
:104420004E05D404D4045905E505F405F405CA1F66
:10443000F21FDB20F21FDB2025204620DB209D2001
:02444000A920B1
:10444200FE01280850011E0A1401391A5E1A3D1A8B
:10445200CE1AC91A3C1A01E200E900EA00B500B618
:1044620000B700CD008301CC008A019201940121A2
:1044720002230224022502260227022A02B300B4E2
:10448200006F007000818283E200E900EA00B5005B
:10449200B600B700CD008301CC008A0192019401DD
:1044A2002102230224022502260227022A02B30045
:1044B200B4006F00700081828334C697669490F7CF
:0444C200313332362A
:00000001FF
